:020000040800F2
:10000000800500200101000883250008B3220008B4
:10001000812500088D0A0008F12900080000000071
:10002000000000000000000000000000872500081C
:100030008F0A00080000000085250008E52500085B
:100040001B0100081B0100081B0100081B01000820
:100050001B0100081B0100081B0100081B01000810
:10006000910A0008970A00089D0A00081B01000871
:100070001B0100081B0100081B0100081B010008F0
:100080001B0100081B0100081B0100081B010008E0
:100090001B0100081B0100081B010008A30A00083F
:1000A0001B010008912600081B0100081B01000825
:1000B0001B0100081B0100081B0100081B010008B0
:1000C0001B0100081B0100081B0100081B010008A0
:1000D0001B0100081B0100081B0100081B01000890
:1000E0001B0100081B0100081B010008DFF80CD0F1
:1000F00000F020FC004800474D3300088005002038
:100100000648804706480047FEE7FEE7FEE7FEE7B1
:10011000FEE7FEE7FEE7FEE7FEE7FEE7492600080A
:10012000ED000008202A04DB203A21FA02F0002129
:10013000704721FA02F3D040C2F1200291400843F7
:1001400019467047D2B201E000F8012B491EFBD2DC
:1001500070470022F6E710B513460A4604461946D2
:10016000FFF7F0FF204610BDF0B480EA0102D40F83
:100170004200B2EB410F02D20246084611464A0045
:1001800042D0C30DDDB2C1F3C752AD1A202D35DA0E
:10019000C1F3160141F4000204B15242C5F1200638
:1001A00002FA06F12A411044B3EBD05F23D0C4B168
:1001B000012DA0EBC35009DCF0BC4FF0004202EA75
:1001C000C352DBB200F5000000F06ABA400000F153
:1001D000807000EBC350A0F1807040EAD1704900FC
:1001E00009E0490841EAC071A0EBC35000F50000E6
:1001F000400800EBC350F0BC00F049BA6142012254
:1002000002EB4101001BF6E7F0BC704781F00041B2
:10021000AAE780F00040A7E780EA010210B502F0EB
:100220000043400022D04A001FD0010E01EB1261B2
:10023000C0F35600C2F3560240F4000042F400023C
:10024000A0FB022000047F39140400D0401C50EAB7
:10025000124001D44000491EC2B20C0604EBD0107B
:10026000401C4008802A02D003E0002010BD20F08E
:100270000100002900DA0020184310BD2DE9FE4FCF
:1002800081EA030404F0004421F0004100944FF09F
:10029000000B23F0004350EA01045ED052EA03044D
:1002A0005BD0C3F30A54C1F30A552C44A4F2F334CF
:1002B0000194A0FB0254C1F3130141F48011C3F374
:1002C000130343F4801301FB024400FB034E840A32
:1002D000970A44EA815447EA8357A4FB07680295CA
:1002E0008D0A05FB07854FEA932C04FB0C54270568
:1002F000029D4FEA065847EA1637B5EB08056EEB44
:10030000070C870E920E47EA811742EA8312A7FB79
:100310000201B6EB0B0164EB00042B0D43EA0C3336
:100320005E1844EB1C50DA465146E7FB0201C5F368
:1003300013044FEA0B3343EA14534FEA0432019C8F
:1003400043EA0603A4F10C040294009CCDE900B436
:1003500000F0E3F903B0BDE8F08F00200146F9E7B3
:100360002DE9F04D81EA030404F0004B21F0004533
:1003700014464FF0000A23F0004150EA050220D055
:1003800054EA01021DD0C5F30A570246C5F3130310
:10039000C1F31300C1F30A5640F4801543F48013EF
:1003A000A7EB0608101BD64608F2FD3873EB0500D4
:1003B00002D308F1010801E092185B41B8F1000F87
:1003C00003DA00200146BDE8F08D00204FF48011D3
:1003D000064684460EE0171B73EB050705D3121B78
:1003E00063EB050306434CEA010C49084FEA300071
:1003F00092185B4150EA0107EDD152EA030012D096
:1004000082EA040083EA0501084305D0101BAB41D2
:1004100006D20122002306E000224FF0004302E052
:100420006FF0010253101AEB06004CEB085110EB71
:100430000A0041EB0B01BDE8F04D00F05FB970B56B
:1004400021F0004303430CD0C1F30A550024D5EB3F
:10045000040564EB0403D617AD1AB34102DB002098
:10046000014670BD201841EB025170BDC10F80EAFA
:10047000E0700844CA079623002100F011B99623C2
:100480000022114600F00CB90EB5C10F80EAE070F1
:100490000844CA07002140F233438DE80E000A46A3
:1004A0000B4600F03AF903B000BD00F0004220F026
:1004B0000040C10DC0F3160040F400007F2901DAAE
:1004C00000207047962903DCC1F19601C84001E085
:1004D00096398840002AF4D04042704720F000400E
:1004E000C10DC0F3160040F400007F2901DA00209E
:1004F0007047962903DCC1F19601C84070479639D0
:100500008840704770B5C1F30A5201F000450024DD
:10051000C1F3130140F2FF3341F480119A4201DA32
:10052000002070BD40F233439A42A2F2334203DC12
:100530005242FFF7F7FD00E090402C43F1D04042DB
:1005400070BD00F0004230F000400AD0C10D01F54E
:100550006071C0F3160042EA0151C208400711431E
:10056000704700200146704730B5041E71F1000449
:1005700004DB4FF00044404264EB0101141E73F1B0
:10058000000405DB1C464FF00043524263EB0403BA
:100590008B4208BF824230BD30B5041E71F10004A9
:1005A00004DB4FF00044404264EB0101141E73F180
:1005B000000405DB1C464FF00043524263EB04038A
:1005C000994208BF904230BD01F0004330B421F0A1
:1005D000004150EA010206D00A0DA2F56072C1F393
:1005E0001301002A02DC30BC00207047440F44EAAB
:1005F000C104C100E01830BC00EBC25000F047B8A5
:1006000030B50B46014600202022012409E021FAE2
:1006100002F59D4205D303FA02F5491B04FA02F5DF
:100620002844151EA2F10102F1DC30BD2DE9F05F76
:100630000546002092469B46884606468146402451
:100640001BE02846414647462246FFF76BFD5346CE
:100650005A46C01A914110D311461846224600F05E
:100660007BF92D1A67EB01084F4622460120002135
:1006700000F072F917EB00094E41201EA4F10104AD
:10068000DFDC484631462A464346BDE8F09F002954
:10069000A8BF7047401C490008BF20F00100704708
:1006A00010B4B0FA80FC00FA0CF050EA010404BF68
:1006B00010BC704749B1CCF1200421FA04F411FABE
:1006C0000CF118BF012121430843A3EB0C01CB1D02
:1006D0004FEA00614FEA102042BF002010BC704773
:1006E00000EBC35010440029A4BF10BC7047401C4D
:1006F000490008BF20F0010010BC704710B5141E5F
:1007000073F1000408DA401C41F1000192185B41CA
:100710001A4301D120F0010010BD2DE9F04D9246A1
:100720009B4611B1B1FA81F202E0B0FA80F22032B8
:10073000904600F011F904460F4640EA0A0041EAEB
:100740000B0153465A46084313D0114653EA0100A1
:1007500019D0C8F140025046FFF7E4FC05460E46AA
:1007600050465946424600F0F7F8084305D00120AC
:1007700004E020463946BDE8F08D0020054346EAF6
:10078000E0762C4337430A986305E40AA0EB08009F
:100790000022FD0A44EA47540A3002D500200146EF
:1007A000E9E7010510196941DDE9084500196941CA
:1007B000BDE8F04DA2E72DE9FE4F804681EA030037
:1007C000C00F0C46009021F0004123F00045B8EB2B
:1007D0000200A94105D24046214690461C460B46E0
:1007E000024623F00040104347D0270DC7F30A000C
:1007F000C3F30A510290401A019040286BDAC3F308
:10080000130040F4801B0098924620B10023D2EBE5
:10081000030A63EB0B0B01985946C0F140025046A6
:1008200000F09AF806460D4650465946019A00F0E7
:10083000A2F810EB08006141002487EA115284EA13
:10084000E7731A4340D0009A62B3019A012A4FEA33
:10085000075215DC001B61EB02014FF0004202EA77
:100860000752CDE90042001C41F5801132462B466B
:10087000FFF753FF03B0BDE8F08F40462146F9E78C
:10088000001B61EB0201001C41F5801300185B4165
:100890002018A2F5001747EB030140EAD570B619FE
:1008A0006D4111E06D084FEA360645EAC0754FEA22
:1008B0000752001B61EB0201001C41F58011490841
:1008C0004FEA30000019514132462B4603B0BDE8D3
:1008D000F04FFFF713BF0098012240000023D0EB38
:1008E000020263EBE073009821464FEAE074B8EB34
:1008F000000061EB0401E9E783F000435BE781F06E
:10090000004158E7C1F30A52C1F3130140F2FF332B
:1009100041F480119A4202DA00200146704740F209
:1009200033439A42A2F2334202DC5242FFF7FABB4F
:1009300000F012B8064C074D06E0E06840F00103F5
:1009400094E8070098471034AC42F6D3FFF7D2FB87
:10095000E035000800360008202A04DB203A00FABF
:1009600002F1002070479140C2F1200320FA03F306
:10097000194390407047202A06DBCB17203A41FAF2
:1009800002F043EAE07306E041FA02F3D040C2F11C
:1009900020029140084319467047000070B5044694
:1009A00000688168C943C9071CD1816821F0010131
:1009B000816000F087FC05460FE000BF00F082FC7C
:1009C000401B022809D9A06A40F01000A062E06A2A
:1009D00040F00100E062012070BD20688068C043E3
:1009E000C007EBD0002070BDF8B500260446009685
:1009F00000688168C943C90728D0816841F00101B6
:100A00008160134813490068B0FBF1F000E0401E1C
:100A100000900028FBD100F055FC054611E000BF16
:100A200000F050FC401B02280BD9A06A40F01000D7
:100A3000A062E06A40F00100E06284F824600120D6
:100A4000F8BD20688068C043C007E9D10020F8BD28
:100A50008400002040420F000A4882B04FF0FF316E
:100A6000C160C16941F08051C161C06900F080502E
:100A700000900548016841F004010160801502B052
:100A800000F0BEBC0010024000700040FEE770475E
:100A9000042000F011BB082000F00EBB102000F075
:100AA0000BBB402000F008BB70470000F8B50025E4
:100AB0000446009590F82400012808D0012084F80D
:100AC00024002046FFF76AFF060002D04BE0022018
:100AD000F8BDA06A20F4885040F00200A062022015
:100AE00000F0ACFC22490968B1FBF0F0400000E0E6
:100AF000401E00900028FBD12046FFF775FF2068BC
:100B0000816841F00801816000F0DCFB074604E0E9
:100B100000F0D8FBC01B0A2811D8206880680007A5
:100B2000F6D42068816841F00401816000F0CAFBBE
:100B300007460EE000F0C6FBC01B0A2809D9A06AD0
:100B400020F0020040F01000A06284F82450012040
:100B5000F8BD206880684007ECD4A06A20F002004D
:100B600040F00100A06284F824503046F8BD000037
:100B700084000020F8B50024009490F82420254635
:100B8000012A12D0012280F824204A681F23072A54
:100B90000DD20668776B521E02EB820293409F4390
:100BA0000B6893401F43776319E00220F8BD066885
:100BB0000D2A0AD2376BD21F02EB820293409F4369
:100BC0000B6893401F43376309E0F76A0D3A02EB65
:100BD000820293409F430B6893401F43F7620A6869
:100BE000072306680A2A0AD3F7680A3A02EB420288
:100BF00093409F438B6893401F43F76008E0376939
:100C000002EB420293409F438B6893401F4337613E
:100C10000A68102A01D0112A20D1124B02689A4288
:100C200017D193681B0219D4936843F400039360AF
:100C30000968102912D10C490C4A0968B1FBF2F17C
:100C400001EB8101490000E0491E00910029FBD120
:100C500004E0816A41F020018162012480F824507F
:100C60002046F8BD002401408400002040420F00CF
:100C70000068C06C704700002DE9F0414FF000079C
:100C800004003D467ED0A06A002628B9E66284F8BA
:100C90002460204600F07EF82046FFF77FFEA16A20
:100CA000C90600D420B1A06A40F01000A06269E03B
:100CB000A16A21F4885141F00201A1626268E169F0
:100CC000237B0A4347EA43010A43A1684FF4807734
:100CD000B94209D0012907D05FF0000194F814C08F
:100CE000BCF1010F02D00AE03946F7E7F3B1A36A7D
:100CF00043F02003A362E36A43F00103E362236845
:100D0000D3F804C02CF4694C4CEA010CC3F804C0BD
:100D100021688B68DFF870C003EA0C0313438B6013
:100D2000A168B9420BD0012909D00CE0DFF85CC002
:100D3000A3690CEB43330B4343F40061DFE7218AE3
:100D40000D05A5F580152168CB6A23F470032B43AC
:100D5000CB62216889680E4B1940914208D1E66246
:100D6000A16A21F0020141F00101A162BDE8F08118
:100D7000A06A20F0020040F01000A062E06A40F09B
:100D80000100E0620120F1E7FDF7E1FF00E0FFFF75
:100D9000FE0E1FFF00B585B0002100910191029168
:100DA000039100680E49884218D10E48816941F4C8
:100DB00000718161816901F400710491816941F0E0
:100DC000040181618069694600F0040004902020DC
:100DD000009003200190044800F07AF905B000BDAE
:100DE0000024014000100240000801402DE9F843B2
:100DF00000260D460446009600F064FA80462068FE
:100E00008168C90508D5A06A40F02000A06284F876
:100E100024600120BDE8F8834168C90503D4C06A95
:100E200010F4700F26D0022000F008FB3849096842
:100E3000B1FBF0F72068036936490B424FEA6101C4
:100E40004FEAA1121BD1C3684FEA611C13EA0C0FD1
:100E500015D103690B4221D1C06810421ED1142064
:100E60001FE0681C06D045B300F02CFAA0EB080088
:100E7000A84222D8206800688007F2D52AE00369DA
:100E80000B4202D1C168114206D0026922490A42CE
:100E900006D1C068084203D1542002E0292000E0B6
:100EA000FC204743009813E0681C0ED02DB100F0E1
:100EB00009FAA0EB0800A84207D9A06A40F0040094
:100EC000A06284F824600320A4E70098401C0090EE
:100ED000B842E9D321686FF012000860A06A40F4BC
:100EE0000070A06220688068C0F3424007280CD1DF
:100EF000207B50B9A06A20F48070A062A06AC00470
:100F000003D4A06A40F00100A062002082E7000044
:100F100084000020244992244992240070B504469C
:100F200090F8240001280DD0012084F824002046E8
:100F3000FFF75AFD02004FF0000005D084F82400AE
:100F4000104670BD022070BDA16A40F20123994392
:100F500041F48071A1621F4D23681F49AB4218D133
:100F60000E6816F4702F14D0A66A46F48016A66296
:100F70000E68760505D5A66A26F4005646F4805616
:100F8000A662A66AF6040AD5E66A26F00606E662B6
:100F900006E0A66A26F48016A6625E68E9E7E062CB
:100FA00084F824006FF00200186020688368C3F39F
:100FB0004243072B05D1A84208D1096811F4702FCC
:100FC00004D0816841F480118160B9E7816841F4FF
:100FD000A001F9E7002801400424014070B504464F
:100FE00000F070F90546601C02D004480078044403
:100FF00000F068F9401BA042FAD370BD78000020D1
:1010000070B52B4C2268E168521C08281CD01028AF
:101010001AD0284D04281BD002282CD040283AD0C2
:10102000B0F5005F13D10A20FFF7D8FF042128464E
:1010300000F03EF901280AD1606AA8B3002060627E
:10104000BDE8704001F0A0BA002900D1226070BD57
:101050000A20FFF7C3FF0421284600F029F90128E0
:1010600007D00421284600F023F90128EFD1E060E1
:1010700070BD0020FBE740F6B830FFF7AFFF04215A
:10108000284600F015F90128F2D1FFF7E5FCBDE88C
:10109000704000F0C3B9012902D16068401C606053
:1010A000A068401CA06070BDFFE70120C7E70000FA
:1010B0004C00002000080140044910B50A680242B3
:1010C00002D00860FFF79CFF10BD0000140401402F
:1010D0002DE9F84FDFF8B891002409F1040A0AF16C
:1010E000040B23460F270BF1040EC9E00125A54090
:1010F0002A40AA427DD1674ED1F804C0ACEB060865
:10110000B44532D014DCBCF1030F3AD009DCBCF199
:10111000000F2AD0BCF1010F1CD0BCF1020F31D15D
:101120001DE0BCF1110F17D0BCF1120F2AD119E04C
:10113000B8F5881F19D006DCB8F5803F15D0B8F592
:10114000801F1FD111E0B8F5001F0ED0B8F5041FA5
:1011500018D10AE0CB6815E0CB681B1D12E0CB6804
:1011600008330FE0CB680C330CE08B682BB1012BFC
:101170004FF0080303D0456104E0042302E0056159
:1011800000E00023FF2A01D8064601E000F1040632
:101190004FEA840501D9A5F12005D6F8008007FAA9
:1011A00005FC28EA0C0803FA05F548EA0508C6F824
:1011B00000804D68ED0062D5374DAE6946F00106FE
:1011C000AE61AD6924F0030605F001050095334DCD
:1011D00006EB050CDCF80850A607360F07FA06F8F0
:1011E00025EA0805DFF8B880404503D14FF0000834
:1011F00017E044E0DFF8AC80404502D14FF0010831
:101200000FE0DFF8A480404502D14FF0020808E06B
:10121000DFF89880404502D14FF0030801E04FF01D
:10122000040808FA06F848EA0508CCF808804D6872
:10123000D9F80060ED034D4601D5164300E0964312
:101240002E604D68DAF80060AD03554601D51643AF
:1012500000E096432E604D68DBF80060ED025D46CD
:1012600001D5164300E096432E604D68DEF800601D
:10127000AD02754601D5164300E096432E60641C0E
:101280000D682A46E5407FF431AFBDE8F88F0000D5
:101290000004014000001110001002400000014055
:1012A00000080140000C0140001001400014014002
:1012B0008068084000D0012070470AB10161704782
:1012C0000904FBE7014880687047000078000020AF
:1012D00002488168027811448160704778000020DC
:1012E000074810B5016841F010010160032000F0CB
:1012F00075F8002000F006F800F024F8002010BD7A
:101300000020024070B50D4D04464FF47A712878E4
:10131000B1FBF0F00A490968B1FBF0F000F0E4FB22
:1013200048B9102C07D200222146501E00F036F892
:1013300000206C6070BD012070BD000078000020AE
:10134000840000200C4808B5816941F001018161E9
:10135000816901F001010091C16941F08051C161D1
:10136000C06900F0805000900448416821F0E061BD
:1013700041F08061416008BD001002400000014062
:10138000002809DB00F01F02012191404009800084
:1013900000F1E020C0F8001170470000F0B40E4BDF
:1013A0001B680C46C3F30223C3F10705042D00D9C3
:1013B0000425191D072901D2002300E0DB1E0126A8
:1013C00006FA05F1491E214099409E40761E1640BE
:1013D0003143F0BC01F01EBB0CED00E0064900F00B
:1013E000070208684FF6FF03184040EA0220034A4C
:1013F00010430860704700000CED00E00000FA05A3
:1014000090FAA0F0044AB0FA80F002EB80000121CB
:10141000C0F880107047000000000E4205480168C7
:1014200041F0020101600448016841F004010160DB
:1014300030BF70470070004010ED00E010B529A4E7
:1014400001461DCC86B08DE81D002AA02A4C0068FC
:1014500004900020012923D002293AD010291DD15F
:1014600061682268D20119D5C1F38342C9031DF80E
:10147000020009D5616804AAC1F34041515C1F4ACA
:10148000B2FBF1F1484301E01D494843616849025C
:1014900004D440005FF00301B0FBF1F006B010BDD2
:1014A000226AC2F30121012903D1920701D5C803A1
:1014B000F4E7022905D1626A920702D549F6404055
:1014C000ECE70329EAD121688903E7D54FF22440EC
:1014D000E4E700F033F96168C1F38131491C490048
:1014E000DAE7000002030405060708090A0B0C0DE1
:1014F0000E0F1010010200000010024000127A00CE
:1015000000093D002DE9F84305460078354CC00739
:1015100054D0E0690026C00008D4E06940F0805053
:10152000E061E069012600F0805000902E480168DB
:10153000C90512D40168804641F480710160FFF74B
:10154000C1FE074605E000BFFFF7BCFEC01B6428D4
:1015500023D8D8F80000C005F6D5206A10F44070F2
:1015600021D0A98801F4407181421CD0206A1F4912
:10157000012220F440700A6000220A602062C00745
:1015800011D0FFF79FFE074641F2883808E000BF00
:10159000FFF798FEC11B414502D90320BDE8F8833F
:1015A000206A8007F4D5206A696820F440700843F7
:1015B00020621EB1E06920F08050E0612878800749
:1015C00005D56068A96820F4404008436060287829
:1015D000C00605D56068E96820F4800008436060B3
:1015E0000020DBE70010024000700040400442424F
:1015F0002DE9F0470F46050061D0434E306800F0FA
:101600000700B84209D2306820F007003843306044
:10161000306800F00700B84251D128683B4C810780
:1016200012D5400703D5606840F4E0606060287818
:10163000000703D5606840F4605060606068A96886
:1016400020F0F000084360602878C00728D0686860
:10165000012810D02168022810D0890700292EDA2D
:10166000616821F0030101436160FFF72BFE8046B2
:1016700041F288390DE021688903EFE78901EDE740
:10168000FFF720FEA0EB0801494502D90320BDE881
:10169000F0876068696800F00C00B0EB810FEFD153
:1016A000306800F00700B8420BD9306820F007001E
:1016B00038433060306800F00700B84201D00120A4
:1016C000E5E72878400705D56068E96820F4E06020
:1016D000084360602878000706D56068296920F40F
:1016E000605040EAC100606000F038F86168084A64
:1016F000C1F30311515CC840064908600648006800
:10170000FFF700FE0020C2E7002002400010024068
:10171000C8350008840000207C00002004480549EA
:1017200000684968044AC1F30221515CC84070470F
:101730008400002000100240D83500080448054904
:1017400000684968044AC1F3C221515CC84070472F
:101750008400002000100240D835000812A185B096
:101760000FC98DE80F0014A0144A00680490516856
:10177000134801F00C03042B10D0082B0ED1C1F339
:101780008343C9031DF803000AD5516804AAC1F3B5
:101790004041515C0A4A5043B0FBF1F005B070473C
:1017A00008494843FAE70000020304050607080950
:1017B0000A0B0C0D0E0F1010010200000010024069
:1017C00000127A0000093D002DE9F84F040070D0A6
:1017D0002078C04DC00749D06868C0F38100012857
:1017E00007D06868C0F38100022809D16868C00387
:1017F00006D52868800339D560680028E7D035E031
:101800006068B0F5803F0BD010B1B0F5A02F11D0BB
:10181000286820F480302860286820F4802002E0C6
:10182000286840F480302860606890B1FFF74AFD76
:1018300006460AE0286840F480202860F0E700BFF0
:10184000FFF740FD801B642873D828688003F7D514
:101850000CE0FFF737FD064605E000BFFFF732FD5D
:10186000801B6428F0D828688003F7D420789A4E2B
:1018700080074FF001094FF0000839D5686810F073
:101880000C0F07D06868C0F38100022809D168688E
:10189000C00306D42868800714D52069012808D120
:1018A00010E02069B0B1C6F80090FFF70BFD0746C5
:1018B00005E00AE1FFF706FDC01B0228C4D828682E
:1018C0008007F7D52868616920F0F80040EAC10078
:1018D00028600DE0C6F80080FFF7F4FC074604E03E
:1018E000FFF7F0FCC01B022823D828688007F7D434
:1018F000207800072CD57948A169D9B1C0F80090AB
:10190000FFF7E0FC074604E0FFF7DCFCC01B022801
:101910000FD8686A8007F7D571484FF4FA5100680C
:10192000B0FBF1F0009000BF0098411E0091FAD288
:101930000EE080E0C0F80080FFF7C4FC074604E03A
:10194000FFF7C0FCC01B022875D8686A8007F7D46F
:101950002078400760D5E8690027C00008D4E8690E
:1019600040F08050E861E869012700F08050009065
:101970005C480168C90513D40168834641F480714D
:101980000160FFF79FFC824606E000BFFFF79AFC6C
:10199000A0EB0A0064284ED8DBF80000C005F5D59E
:1019A000E06801280AD008B1052813D0286A20F081
:1019B00001002862286A20F0040002E0286A40F052
:1019C00001002862E06841F2883B98B1FFF77AFC99
:1019D00082460BE0286A40F004002862EEE700BF70
:1019E000FFF770FCA0EB0A0159455AD8286A800716
:1019F000F6D50CE0FFF766FC824605E0FFF762FCD7
:101A0000A0EB0A0159454CD8286A8007F6D41FB1CB
:101A1000E86920F08050E861E06988B36968C1F343
:101A20008101022944D00228C6F8608004D0FFF763
:101A300049FC044638E034E0FFF744FC074604E084
:101A4000FFF740FCC01B02282BD828688001F7D480
:101A5000206AB0F5803F05D16868A16820F40030A5
:101A600008436860D4E908010843696821F47411E7
:101A700008436860C6F86090FFF724FC044606E05F
:101A800025E000BFFFF71EFC001B022809D82868CC
:101A90008001F7D51BE000BFFFF714FC001B0228F4
:101AA00002D90320BDE8F88F28688001F4D40EE045
:101AB0000128F7D06868226A00F48031914204D18D
:101AC000616A00F47010884201D00120EAE700202A
:101AD000E8E7000000100240000042428004424259
:101AE000840000200070004010B5401EB0F1807FDF
:101AF00001D3012010BD4FF0E02460610F21601779
:101B000000F088FF0020A06107202061002010BDA8
:101B10007047704770B590F83C20012A19D0012415
:101B200000F83C4F0222427050F83C3C5A689D68D5
:101B300022F070060A684968324325F0800529437F
:101B40005A6050F83C2C91604470002101700846A6
:101B500070BD022070BD10B5040003D094F83D00A4
:101B600010B107E0012010BD002084F83C002046A1
:101B700000F00CF8022084F83D00211D206800F0E0
:101B80008DFD012084F83D00002010BD08B5114AEC
:101B900001681148914211D1816941F4006181616C
:101BA0008069002200F40060009011461920FFF7C0
:101BB000F5FBBDE808401920FFF7E2BBB1F1804F0B
:101BC00007D1C16941F00101C161C06900F00100A4
:101BD000009008BD002C0140001002400168CA6856
:101BE00042F00102CA600068816801F0070106291D
:101BF00003D0016841F0010101600020704770B519
:101C0000044690F83C00012817D0012584F83C5088
:101C1000022084F83D002068826822F0770222F4D6
:101C20007F4282600868502830D00DDC20284DD0DB
:101C300005DC98B310283BD148E0022070BD302865
:101C400044D0402834D139E0602828D0702806D00C
:101C5000B0F5805F2CD0B0F5005F29D10AE0CB68E9
:101C6000D1E90121206800F05CFD2068816841F025
:101C7000770109E0CB68D1E90121206800F051FD2E
:101C80002068816841F48041816011E0CA68496838
:101C9000206800F0FBFD5021206807E016E0CA68CC
:101CA0004968206800F003FE6021206800F043FDD1
:101CB00084F83D50002084F83C0070BDCA68496833
:101CC000206800F0E3FD40212068EFE7226801462C
:101CD0001046EBE7704770B50446006801694FF0A5
:101CE0000005C943890715D4C168C943890711D4C0
:101CF000E91E016101202077206880698007204665
:101D000002D0FFF7E7FF04E000F0C8F8204600F03B
:101D10004AF9257720680169C943490717D4C16882
:101D2000C943490713D46FF00401016102202077F1
:101D30002068806910F4407F204602D0FFF7CAFF78
:101D400004E000F0ABF8204600F02DF9257720687C
:101D50000169C943090716D4C168C943090712D4E8
:101D60006FF008010161042020772068C0698007B6
:101D7000204602D0FFF7AEFF04E000F08FF82046C7
:101D800000F011F9257720680169C943C90617D405
:101D9000C168C943C90613D46FF01001016108205E
:101DA00020772068C06910F4407F204602D0FFF7FA
:101DB00091FF04E000F072F8204600F0F4F8257777
:101DC00020680169C943C90708D1C168C943C90767
:101DD00004D1891E0161204600F002F920680169E2
:101DE000C943090609D4C168C943090605D46FF07F
:101DF000800101612046FFF78BFE20680169C9431D
:101E0000490609D4C168C943490605D46FF04001A9
:101E10000161204600F086F920680169C9438906FE
:101E20000BD4C168C943890607D46FF02001016152
:101E30002046BDE87040FFF76CBE70BD00B585B0B0
:101E4000002100910191029103910068B0F1804F4F
:101E50001BD10F48816941F00401816180696946A5
:101E600000F0040004904FF4004000900220019024
:101E700003900848FFF72CF90748416821F44071A6
:101E800041F0E06141F48071416005B000BD0000A7
:101E9000001002400008014000000140704770B58A
:101EA000044690F83C000D4601280DD0012684F828
:101EB0003C60022084F83D0042B1042A18D0082A70
:101EC0002AD00C2A4DD139E0022070BD206800F0E4
:101ED0003BFC2068816941F00801816120688169CB
:101EE00021F004018161206881692A69114311E0B0
:101EF000206800F051FC2068816941F40061816133
:101F00002068816921F480618161206881692A6982
:101F100041EA0221816124E0206800F069FC206828
:101F2000C16941F00801C1612068C16921F0040163
:101F3000C1612068C1692A69114311E0206800F07D
:101F400083FC2068C16941F40061C1612068C169F6
:101F500021F48061C1612068C1692A6941EA0221D6
:101F6000C16184F83D60002084F83C0070BD10B56C
:101F7000040003D094F83D0010B107E0012010BD2B
:101F8000002084F83C00204600F00CF8022084F881
:101F90003D00211D206800F081FB012084F83D00F8
:101FA000002010BD7047704710B50446006801223C
:101FB00000F0AAFB09492068884203D1416C41F432
:101FC000004141642068816801F00701062903D0BF
:101FD000016841F001010160002010BD002C0140AA
:101FE000F8B548490068096888427CD1464C00250C
:101FF000E068401C56D000214448FFF7D5FFE06858
:1020000010B1012817D04DE0206801F07DF9FEF7EE
:102010002DFAFEF796FA6FF00102FEF710FAFEF7BE
:1020200071FA2560FEF722FAFEF73FFA01462069B1
:1020300001F0A6F936E0606801F066F9FEF716FADD
:10204000FEF77FFA4FF0FF373A46FEF7F8F9FEF752
:1020500059FAFEF719FA3A46FEF7F1F9FEF7B4FA23
:102060000646A06801F050F9FEF700FAFEF769FA9B
:102070003A46FEF7E4F9FEF745FAA560FEF704FAE2
:102080003A46FEF7DCF9FEF79FFAFEF70EFA07462E
:102090003046FEF70AFA024604F1140000970BC816
:1020A00001F0D2F9206A64282AD11948FEF736FFD8
:1020B00005211748FEF79AFE1548FEF7D9FDFEF7F1
:1020C000DEF9A16AFEF750F8A062FEF73AFA4FF087
:1020D0006632104BFEF7D2F86FF00B02FEF7AFF945
:1020E000FEF772FA00E00BE0FEF72BFA00220A4B33
:1020F000FEF736F902460B4608A000F07BFC25628D
:10210000F8BD0000BC0000204C000020FC000020B6
:102110008C00002066660A4000001440252E3466BC
:102120002F6E0000704770B5040004D094F8390099
:10213000002510B106E0012070BD84F8385020461B
:1021400000F022F8242084F839002068C16821F4C6
:102150000051C160204600F0BDFB2068016921F4F8
:10216000904101612068416921F02A0141612068A4
:10217000C16841F40051C160E563202084F8390052
:1021800084F83A00002070BD30B585B0002400947A
:1021900001940294039400681449884224D114489D
:1021A000816941F480418161816901F48041049138
:1021B000816941F00401816180690E4D00F00400E5
:1021C00004904FF4007000900220019003200390CF
:1021D00069462846FEF77CFF2815CDE900046946CC
:1021E00028460294FEF774FF05B030BD0038014068
:1021F00000100240000801402DE9F843044690F821
:1022000039001F4616460D46202850D1A5B19EB173
:1022100094F8380001284AD0012084F838004FF0A3
:102220000008C4F83C80212084F83900FFF74AF800
:10223000A6848146E68426E00120BDE8F883E08C90
:10224000401EE084A0684B46B0F5805F4FF000026E
:102250004FF080012046009703D000F097FBE8B9CB
:102260000DE000F093FBC8B928882168C0F308008E
:102270004860206908B16D1C05E0AD1C03E02168D1
:1022800015F8010B4860E08C0028D8D14B4600229D
:1022900040212046009700F079FB08B10320CCE7ED
:1022A000202084F8390084F838800020C5E7022017
:1022B000C3E7FEE73EB50024114800940194029460
:1022C0000E498460016004730475012505614FF4B3
:1022D00060214460C161FEF7CFFC08B1FEF7E4FB6A
:1022E0000520CDE90005694602940548FEF742FC49
:1022F000002801D0FEF7D8FB3EBD000000240140BD
:102300008C0000202DE9F04385B00025464800955B
:10231000019502950395816941F010018161816900
:1023200001F010010491816941F02001816181690E
:1023300001F020010491816941F00401816181690A
:1023400001F004010491816941F008018161806913
:10235000DFF8D88000F008000490002202214046F7
:10236000FEF7ABFFDFF8C8904FF440770122394603
:102370004846FEF7A2FF2F4E4FF40050CDE900066D
:102380000224694602942C48FEF7A2FE1120CDE9F2
:1023900000400320CDE9025069464046FEF798FE12
:1023A0000C20CDE90006694602944046FEF790FEF7
:1023B000502000902148CDE9010469464046FEF7CF
:1023C00087FECDE900460126694648460296FEF79B
:1023D0007FFECDE90254CDE9007669464846FEF716
:1023E00077FE002211460820FEF7D8FF0820FEF7EE
:1023F000C7FF002211460920FEF7D0FF0920FEF793
:10240000BFFF002211460A20FEF7C8FF0A20FEF790
:10241000B7FF002211461720FEF7C0FF1720FEF776
:10242000AFFF05B0BDE8F083001002400008014096
:10243000000C01400000111000100140000031109C
:1024400010B586B0002418480094019402940394B7
:10245000049414490594016040F2CF21C0E90114AD
:1024600040F2E731C0E903148021C0E90541FFF7DC
:1024700072FB08B1FEF718FB4FF4805000906946DC
:102480000948FFF7BCFB08B1FEF70EFB049404A952
:1024900005480594FFF73EFB002801D0FEF704FB3A
:1024A00006B010BD002C0140BC00002010B58EB05D
:1024B00000240794089409940A940B941C216846FC
:1024C0000C94FDF746FE1F484FF08041016040F23A
:1024D000CF21C0E9011440F2E731C0E903148021A3
:1024E0008161FFF738FB08B1FEF7DEFA4FF4805048
:1024F000079007A91348FFF782FB08B1FEF7D4FA4B
:102500001048FFF734FD08B1FEF7CEFA0B940BA983
:102510000C480C94FFF7FEFA08B1FEF7C5FA6020EC
:1025200000900A20CDE90104002269460548049480
:10253000FFF7B5FC08B1FEF7B7FA0248FFF77EFCDB
:102540000EB010BDFC0000200C4810B50A49016017
:102550004FF4E1314160002181600C22C160C0E98B
:1025600004128161C161FFF7DEFD002803D0BDE8E0
:102570001040FEF799BA10BD003801403C01002020
:10258000FEE770477047704770B50122134C160282
:1025900031462046FEF791FE01225502294620468B
:1025A000FEF78BFE0A20FEF719FD0D48406A68B160
:1025B000012812D1002231462046FEF77EFE01227C
:1025C00029462046BDE87040FEF777BE012231461D
:1025D0002046FEF772FE0022F2E770BD000C0140BB
:1025E0004C000020FEF774BE30B593B02821684639
:1025F000FDF7AFFD14210AA8FDF7ABFD0024012073
:102600000F9410941194010412948DE81300049017
:102610004FF4E010CDE90810022507956846FFF752
:10262000D3F80F20CDE90A056802CDE90C4002215C
:102630000AA80E94FEF7DCFFA80311900F950FA8CF
:10264000FEF760FF13B030BD0D48016841F0010195
:10265000016041680B4A1140416001680A4A11401B
:102660000160016821F480210160416821F4FE01CC
:1026700041604FF41F0181600449C0030860704746
:10268000001002400000FFF8FFFFF6FE08ED00E03A
:102690000148FFF720BB0000BC000020F0B5026835
:1026A000164B174C174D4FF08047984205D0B84253
:1026B00003D0A04201D0A84203D122F070064A689C
:1026C0003243984205D0B84203D0A04201D0A8427C
:1026D00003D122F44074CA6822434C6922F080027C
:1026E000224302608A68C2620A688262984201D10B
:1026F0000969016301214161F0BD0000002C014026
:10270000000400400008004010B501F01F03012143
:10271000046A99408C430462016A9A401143016241
:1027200010BD10B5846842EA032224F47F440A43B2
:102730002243826010BD826822F070020A4342F098
:10274000070181607047000030B5026A22F0010283
:102750000262026A4368846924F073050C682C43A2
:1027600022F002058A682A430A4DA8420BD122F0C2
:102770000805CA6823F440732A434D6922F0040215
:102780001D438B692B434360846149684163026246
:1027900030BD0000002C014030B5026A22F010026A
:1027A0000262026A436884690D6824F4E64444EADC
:1027B00005248D6822F0200242EA05120B4DA84242
:1027C0000ED1CD6822F0800242EA05124D6923F451
:1027D000406343EA85038D6922F0400243EA8503A2
:1027E0004360846149688163026230BD002C01400E
:1027F00030B5026A22F480720262036A4268C469D8
:1028000023F4007324F073050C682C438D6843EAAD
:1028100005230C4DA8420ED1CD6823F4006343EA92
:1028200005234D6922F4405242EA05128D6923F4D2
:10283000806342EA05124260C4614968C163036271
:1028400030BD0000002C014030B5026A22F48052F5
:102850000262046A4268C3690D6823F4E64343EAEE
:1028600005238D6824F4005444EA0534064DA8423B
:1028700004D14D6922F4804242EA85124260C3616C
:1028800049680164046230BD002C014010B5036A40
:10289000046A24F001040462846924F0F00444EA28
:1028A000021423F00A020A438461026210BD10B5CB
:1028B000036A23F0100303628369046A23F47043FC
:1028C00043EA023224F0A00343EA0111826101626B
:1028D00010BD00002DE9F041044600680169E2687E
:1028E00021F44051114301612169A06808436169E5
:1028F00008432168CA6841F20C639A430243CA60E4
:1029000020684169A26921F44071114341611E4967
:10291000206864253226884202D1FEF70FFF01E0CD
:10292000FEF7FCFE00EBC00101EB001160686FF0E8
:1029300018078000B1FBF0F2B2FBF5F2B1FBF0F347
:102940007A4303EB8202B1FBF0F306EB0212B2FB17
:10295000F5F2B3FBF5F302F0F00202EB0312B1FB68
:10296000F0F3B1FBF0F0B0FBF5F0784303EB80003F
:1029700006EB0010B0FBF5F0216800F00F001044EA
:102980008860BDE8F0810000003801402DE9F04189
:10299000984617460E460446069D1DE0681C1BD04F
:1029A0002DB1FEF78FFCA0EB0800A84214D92068D7
:1029B000C16821F4D071C1602068416921F0010132
:1029C0004161202084F8390084F83A00002084F81E
:1029D00038000320BDE8F0812068006836EA000076
:1029E00004D00020B842D9D00020F3E70120F9E755
:1029F000FEE700000FB4054B10B503A9044A029886
:102A000000F0EAF810BC5DF814FB00003133000858
:102A1000880000200907090E002804DB00F1E020EF
:102A200080F80014704700F00F0000F1E02080F8FB
:102A3000141D704702E008C8121F08C1002AFAD10D
:102A400070477047002001E001C1121F002AFBD12E
:102A5000704700002DE9FF5F82B00021DDE90430FE
:102A6000020DDDF840B0034318D044F61050A2F236
:102A7000FF3242431514119801281FD0A5EB0B001B
:102A8000401C5FEA000A4FF000064E4FDFF8389115
:102A9000B046504615D5CAF1000413E01198012440
:102AA0004AA3012801D16FEA0B010298119AC0E9EB
:102AB0000031C0E9024206B0BDE8F09FCBF1000052
:102AC000DFE704460021404A491842EB0450CDE9B3
:102AD000001012E0E00707D032463B464046494628
:102AE000FDF7CCFB8046894632463B4610461946E8
:102AF000FDF7C4FB06460F466410002CEAD1DDE961
:102B00000401DDE90023BAF1000F06DAFDF7B6FB98
:102B100042464B46FDF7B2FB05E0FDF721FC42467D
:102B20004B46FDF71DFC04460E460022284BFDF7E0
:102B300033FD03D84FF0FF30014607E00022254B5C
:102B400020463146FDF737FEFDF7DCFE102409E094
:102B5000002C0ADB0A220023FDF768FD039B3032BC
:102B60001A55641E50EA0102F2D1641C039AC4F1A2
:102B700011031444119A012A03D0012208430DD1F4
:102B80000AE0084304D000204FF0110B119072E7C7
:102B9000A3EB0B056D1E0DE05B4504DD4FF000025D
:102BA00005F1010504E003DA4FF00002A5F101058B
:102BB000002AECD002981199C0E90231C0E9004521
:102BC00079E70000000014400000F03F30000000F2
:102BD0000000F0430000E03F2DE9FF4F95B09B4619
:102BE0008946064600250FE2252877D1002427468E
:102BF000F84A0121059400E0044316F8013F203B08
:102C000001FA03F01042F7D130782A2811D06FF082
:102C10002F033078A0F13002092A16D8059A44F023
:102C2000020402EB820203EB42021044761C059080
:102C3000EFE759F8042B0592002A03DA504244F4D6
:102C40000054059044F00204761C30782E2816D1EA
:102C500016F8010F44F004042A280DD06FF02F025B
:102C60003078A0F13003092B09D807EB870302EB7A
:102C70004303C718761CF3E759F8047B761C3078B9
:102C80006C280FD006DC4C2817D068280DD06A2895
:102C900014D104E0742810D07A280FD10DE044F448
:102CA00000140AE044F4801401E044F44014727803
:102CB000824202D104F58014761C761C3078662896
:102CC0000BD013DC582877D009DC002875D04528B4
:102CD000F6D04628F4D047281AD19DE118E06328A1
:102CE00035D0642879D0652812D195E1702873D049
:102CF00008DC6728F1D069286FD06E280DD06F28C6
:102D000006D1B5E073282CD0752875D0782874D0FA
:102D10005A46179990476D1C75E1C4F3025002287A
:102D200009D003280DD0D9F8001004280DD00D606B
:102D300009F1040967E1D9F80010EA17C1E9005266
:102D4000F6E7D9F800100D80F2E70D70F0E719F8FA
:102D5000041B8DF8001000208DF80100EA460120C8
:102D600003E059F804AB4FF0FF3061074FF000016A
:102D700002D40DE008F101018846B9420FDA80451E
:102D8000F8DB1AF808100029F4D108E008F1010175
:102D900088468142FADB1AF808100029F6D1059816
:102DA0005B46A0EB080721463846179A00F094FAD4
:102DB000284400EB080507E04DE029E10DE01AF892
:102DC000010B5A4617999047B8F10108F7D25B46B4
:102DD00021463846179A13E142E00A220092C4F3D2
:102DE00002524FF0000A022A08D059F804CB032AF5
:102DF0004FEAEC710AD00DE029E02AE009F1070161
:102E000021F00702F2E802C1914609E00FFA8CFCBA
:102E10004FEAEC71042A03D14FFA8CFC4FEAEC71B3
:102E2000002907DA0A460021DCF1000C61EB0201FF
:102E30002D2202E0220504D52B228DF80420012248
:102E400003E0E20701D02022F7E7904659E00A218B
:102E500002E010220DE010214FF0000A00910BE07B
:102E600010224FF0000A44F004040827009203E007
:102E700008224FF0000A0092C4F30252022A05D041
:102E800059F804CB0021032A08D009E009F1070111
:102E900021F00702F2E802C1914605E01FFA8CFC1E
:102EA000042A01D10CF0FF0C4FF00008220728D5AE
:102EB000702806D0009B83F0100353EA0A0305D064
:102EC0000EE040228DF80420012208E05CEA0102B5
:102ED00006D030228DF804208DF80500022290469D
:102EE000009B83F0080353EA0A030AD15CEA01025B
:102EF00001D1620705D530228DF804204FF001087A
:102F00007F1E582804D034A003900EA802900DE034
:102F100036A0F9E753466046009AFDF787FB8446E2
:102F20000398825C0298401E029002705CEA0100E5
:102F3000F0D1029806A9081A00F1200A600702D50C
:102F400024F4803400E00127574502DDA7EB0A0096
:102F500000E0002000EB0A01009005984144401A6F
:102F60000590E00306D45B462146179A059800F0C9
:102F7000B3F90544002706E001A85A46C05D179939
:102F800090476D1C7F1C4745F6DBE0030CD55B4684
:102F90002146179A059800F09FF9054404E0302077
:102FA0005A46179990476D1C0099481E00900029B9
:102FB000F5DC08E0029802995A460078491C029113
:102FC000179990476D1CBAF10001AAF1010AF1DCD2
:102FD00065E10000092801003031323334353637DD
:102FE0003839616263646566000000003031323355
:102FF00034353637383941424344454600000000F5
:1030000000F058F90544761C307800287FF4ECADC8
:1030100019B02846BDE8F08F620700D4062709F1F1
:10302000070222F0070CFCE80223E14603F0004807
:103030005FEA080C02D00FF2702C0DE05FEA045C2E
:1030400002D50FF2682C07E05FEAC47C02D00FF2D1
:10305000602C01E0AFF2700C4FF0FF3823F000431A
:10306000CDF850C065280CD006DC452809D046288C
:103070001DD047283DD13DE0662818D067287ED175
:1030800038E00021112F01DB112000E0781CCDE990
:10309000000106A90EA8FFF7DDFCDDE90F010E9A7D
:1030A00003910021009207F1010A04914DE04FF0D5
:1030B00000400097CDE9011006A90EA8FFF7CAFC51
:1030C000DDE90F0203920E9B11990022DDF80CA09E
:1030D0000093049211B9791C00EB010AB7EB0A00C6
:1030E00004D4C0F1FF3007F1010A0490AAEB0700F5
:1030F000019044E0012F00DA01270021112F01DDAA
:10310000112000E03846CDE9000106A90EA8FFF71E
:10311000A1FCDDE90F010E9A0391002104910092B8
:10312000BA4621070CD40399514500DA8A46BAF110
:10313000010F05DD009AAAF10101515C302908D088
:10314000B84202DA10F1040F06DA0121CDE90110CC
:1031500015E0AAF10101E9E7002805DC0499014422
:103160000491AAEB000102E0411C514500DD8A46B2
:103170000499401A401C01904FF000400290200733
:1031800004D40198504501DBCDF8048000208DF86F
:103190004F0002980DF14F07B0F1004F25D02B20C2
:1031A0000E9002984FF0020800280CDA404202907C
:1031B0002D200E9007E00A210298FDF721FA303108
:1031C000029007F8011DB8F10001A8F10108F2DC36
:1031D00002980028EFD1791E0E980870307800F020
:1031E000200040F0450007F8020D12A8C01B00F1B6
:1031F00007081498007800B1012000EB0A0101983B
:1032000001EBE07105984144401A401E0590E0032F
:1032100006D45B462146179A059800F05DF80544F0
:103220001498007818B15A46179990476D1CE0031E
:1032300024D55B462146179A059800F04DF80544C1
:103240001CE00498002807DBDDE90301884203DD68
:103250000098405C179901E0179930205A46904732
:10326000049805F10105401C04900198401E01904E
:1032700004D12E205A46179990476D1CBAF10001CF
:10328000AAF1010ADDDC05E017F8010B5A4617998F
:1032900090476D1CB8F10001A8F10108F4DC5B4611
:1032A0002146179A0598ABE62D0000002B00000080
:1032B000200000002DE9F041044600251E46174677
:1032C000880404D405E039462020B0476D1C641EF4
:1032D000F9D52846BDE8F0812DE9F04104460025E6
:1032E0001E469046C80301D5302700E020278804F9
:1032F00004D505E041463846B0476D1C641EF9D53B
:103300002846BDE8F081000000EBC00210B50021A6
:1033100002EB001001EB8000FDF7B6F80022034B32
:10332000FDF71EF8BDE81040FDF7ECB800001440B2
:1033300038B504468DF80000022301226946024890
:10334000FEF75AFF204638BD3C010020FDF7C8FFBC
:10335000FFF74AF9FEF7D6FFFEF7ACFFFFF770F86C
:10336000FFF7A4F8FFF7F0F80348FEF737FC03482F
:10337000FDF79CFBFEE70000BC0000208C00002055
:103380002DE9F0410A460146104600F089F82A4C22
:103390000268E1688A424CDA4068884249DA274884
:1033A000FDF7BCFD05212548FDF720FD2068244FD1
:1033B0001E28224806DAFDF75BFC60602068401C8E
:1033C000206003E0FDF754FCA0602068FDF75CF886
:1033D00005460E466068FDF757F80022194BFCF7CA
:1033E0004DFF2A463346FCF7BBFF05460E46A06854
:1033F000FDF74AF82A463346FDF7CEF810D9606843
:10340000FDF742F84FF0FF32FDF719F806460D467A
:10341000A068FDF739F832462B46FDF7A5F801D82C
:10342000012200E000223846BDE8F0410221FDF70C
:1034300044BFBDE8F0810000000000208C000020A7
:10344000000801400000F83F2DE9F041154688468C
:10345000069E01461F463246284600F04FF80E4CA5
:1034600001682269914214DA40686169884210DA81
:103470003B4632464146284600F040F80068216944
:10348000884206DA6169884203DA04490020096843
:103490004863BDE8F081000000000020FC0000202F
:1034A0002DE9FC41401AFCF7E1FF114F0546394672
:1034B000FCF7B2FE0F4C06462846A16AFCF7A6FEB2
:1034C0003946FCF7A9FE3146FCF74EFE616AFCF76F
:1034D0004BFEC4E90905FDF701F80749096848638F
:1034E0002846FCF7E2FF009001906846BDE8FC81A9
:1034F0000000A04100000020FC0000202DE9FC4756
:1035000004460D46D01AFCF7B1FF0746601BFCF7D6
:10351000ADFF294C05460146606BFCF725FE606354
:1035200080462846A16BFCF771FE2449FCF774FE27
:10353000DFF88C90064649464046FCF76DFE804613
:1035400049462846FCF768FE4146FCF70DFE314629
:10355000FCF70AFE064649463846FCF75DFE804603
:103560003846216CFCF752FE4946FCF755FE4146B1
:10357000FCF7FAFD616CFCF7F7FD01466064E06959
:10358000FCF74AFE80463146A069FCF745FE4146FD
:10359000FCF7EAFD2764A563FCF7A0FF0949096869
:1035A00048632846FCF781FF00903846FCF77DFF12
:1035B00001906846BDE8FC87000000200000204123
:1035C0000000A041FC0000200000000000000000FE
:1035D00001020304060708090000000001020304B9
:1035E00000360008000000208C000000342A00088B
:1035F0008C3600088C000020F4040000442A0008E7
:103600000000000000000000000000004E0000006C
:10361000020000004E0000009A99193FCDCCCC3E2C
:10362000000000000000000000000000000000009A
:10363000000000000000000000000000000000008A
:10364000000000000000000000000000000000007A
:103650000000000000000000FFFFFFFF9E070000C9
:10366000A000000012020000750000000000000031
:103670000000000000000000010000001000000039
:0C368000000000000024F4000000000026
:04000005080000ED02
:00000001FF
